:100000000C945C000C9479000C9479000C947900A9
:100010000C9479000C9479000C9479000C9479007C
:100020000C9479000C9479000C9479000C9479006C
:100030000C9479000C9479000C9479000C9479005C
:100040000C940C010C9479000C9479000C947900B8
:100050000C9479000C9479000C9479000C9479003C
:100060000C9479000C947900000000080002010053
:100070000003040700000000000000000000000072
:10008000250028002B0000000000240027002A0083
:10009000040404040404040402020202020203032E
:1000A0000303030301020408102040800102040836
:1000B000102001020408102011241FBECFEFD8E049
:1000C000DEBFCDBF11E0A0E0B1E0E6E0F4E002C0A9
:1000D00005900D92AC31B107D9F721E0ACE1B1E068
:1000E00001C01D92A532B207E1F70E9456010C949F
:1000F00001020C94000090E0FC01EC55FF4F2491AC
:10010000FC01E057FF4F8491882399F090E0880F1D
:10011000991FFC01EA57FF4FA591B491FC01E458E7
:10012000FF4F859194918FB7F894EC91E22BEC936B
:100130008FBF089590E0FC01E859FF4F2491FC0126
:10014000EC55FF4F3491FC01E057FF4FE491EE2353
:1001500009F43CC0222339F1233091F038F42130E6
:10016000A9F0223001F584B58F7D12C0273091F0BF
:100170002830A1F02430B9F4809180008F7D03C035
:10018000809180008F77809380000DC084B58F7739
:1001900084BD09C08091B0008F7703C08091B0000A
:1001A0008F7D8093B000F0E0EE0FFF1FE458FF4F0B
:1001B000A591B4919FB7F894611104C08C913095CA
:1001C000382302C0EC913E2B3C939FBF08953FB76C
:1001D000F8948091210190912201A0912301B09186
:1001E000240126B5A89B05C02F3F19F00196A11D3B
:1001F000B11D3FBFBA2FA92F982F8827820F911DBD
:10020000A11DB11DBC01CD0142E0660F771F881F03
:10021000991F4A95D1F708951F920F920FB60F922A
:1002200011242F933F938F939F93AF93BF9380910C
:100230001D0190911E01A0911F01B09120013091EC
:100240001C0123E0230F2D3720F40196A11DB11DC1
:1002500005C026E8230F0296A11DB11D20931C01A5
:1002600080931D0190931E01A0931F01B093200164
:100270008091210190912201A0912301B09124014C
:100280000196A11DB11D8093210190932201A0939D
:100290002301B0932401BF91AF919F918F913F9122
:1002A0002F910F900FBE0F901F901895789484B5E2
:1002B000826084BD84B5816084BD85B5826085BD62
:1002C00085B5816085BD80916E00816080936E00F0
:1002D00010928100809181008260809381008091E2
:1002E0008100816080938100809180008160809393
:1002F00080008091B10084608093B1008091B00053
:1003000081608093B00080917A00846080937A004D
:1003100080917A00826080937A0080917A00816077
:1003200080937A0080917A00806880937A0010929E
:10033000C10086E00E947B0088E00E947B008AE08A
:100340000E947B0090E0A92E90E0B92E00E011E021
:1003500060E088E00E949A00F801E190F1908F013E
:10036000C0E0D0E0FF24B7010C2E02C07595679560
:100370000A94E2F7617086E00E949A0061E08AE0E8
:100380000E949A0060E08AE00E949A002196C8309C
:10039000D10549F761E088E00E949A000E94E700D9
:1003A0002B013C0184EFC82EDD24D394E12CF12CE9
:1003B0000E94E700DC01CB0184199509A609B70961
:1003C000883E9340A105B10598F321E0C21AD108F7
:1003D000E108F10888EE480E83E0581E611C711C8C
:1003E000C114D104E104F10419F7F1E00C311F0745
:1003F00009F0AECFA114B10409F4A8CF0E94000007
:06040000A5CFF894FFCF28
:1004060001000200040008001000200040008000E7
:0C0416004000200010000800040002005C
:00000001FF
